:020000040800F2
:10000000880F002079020008251E0008E31D000863
:10001000211E000877190008692B00080000000065
:10002000000000000000000000000000C51F0008E4
:10003000291B000800000000AD1E0008D9200008A0
:10004000930200089302000893020008930200083C
:10005000930200089302000893020008930200082C
:10006000930200089302000893020008930200081C
:10007000930200089302000893020008930200080C
:1000800093020008930200089302000893020008FC
:100090009302000893020008930200082D1B000839
:1000A00093020008930200089302000893020008DC
:1000B0004922000819230008412300089302000880
:1000C00093020008930200089302000893020008BC
:1000D00093020008CD2600084D270008930200086F
:1000E000930200089302000893020008930200089C
:1000F000930200089302000893020008930200088C
:10010000930200089302000893020008930200087B
:1001100093020008930200089302000809240008D3
:10012000930200089302000893020008930200085B
:1001300000F002F800F090F80AA090E8000C824469
:100140008344AAF10107DA4501D100F085F8AFF246
:10015000090EBAE80F0013F0010F18BFFB1A43F0A5
:1001600001031847FC3B00001C3C0000103A24BF70
:1001700078C878C1FAD8520724BF30C830C144BF0C
:1001800004680C607047000000230024002500264E
:10019000103A28BF78C1FBD8520728BF30C148BFEA
:1001A0000B6070476E2900F0FB82702900F07386A7
:1001B000662903F05B85652903F05885672903F0FC
:1001C00055856129AFF3008003681B0A28BF41F001
:1001D0008001692900F0C680642900F0C380752978
:1001E00000F0C0806F2900F00186782900F03F867A
:1001F000E92900F09B85E42900F09885F52900F0B5
:100200009585EF2900F0FE85F82900F03E86036809
:10021000DB0928BF41F08001632900F00A857329BA
:1002200000F00F85E32900F0D586F32900F0DA8687
:10023000002070471FB500F039FE040000200021A7
:1002400002F0C0FF401C60600020002102F0A4FF0B
:10025000E0601FBD10B510BD00F05EFF1146FFF756
:10026000E9FF02F019FE00F085FF03B4FFF7F2FF8B
:1002700003BC02F096FC000009488047094800478B
:10028000FEE7FEE7FEE7FEE7FEE7FEE7FEE7FEE746
:10029000FEE7FEE704480549054A064B70470000A3
:1002A000DD2000083101000888090020880F0020A7
:1002B000880B0020880B0020704700000FB4044911
:1002C00010B503AA029800F0C1FC10BC5DF814FB45
:1002D000580000201CB50C46064B7B446946009034
:1002E000204600F084FC04460020694600F092FCA1
:1002F00020461CBD370900000FB4044910B503AAFD
:10030000029800F0A3FC10BC5DF814FB580000201C
:1003100070B50C460546012A05D02878800600D520
:10032000EA69002302E0012305E05B1C934202D24C
:10033000E05C0028F9D1A869E618C01AA861286A0B
:1003400018442862284600F099F904E0D5E9012113
:1003500014F8010B9047B442F8D3284600F0A4F9F2
:1003600070BD00002DE9F041064600241068752993
:10037000314616A510D000F0A8F9002802DA404254
:1003800013A507E031688A0701D512A502E04907E5
:1003900004D511A5012401E000F0A0F900210A22F2
:1003A00006F1240709E0B0FBF2FCB0FBF2F302FB1C
:1003B0001C00303078541846491C0028F3D12346DD
:1003C0002A463046BDE8F04100F091B90000000037
:1003D0002D0000002B000000200000002DE9F05F40
:1003E000894604464FF0000ADFF874B1FB44C0F8B8
:1003F00020A02046E1688847002874D0252806D030
:10040000D4E901219047206A401C2062F1E70026D0
:100410005F462046E16888472028054607DB312DE6
:1004200005D2781910F8200C08B10643F1E7B0079F
:1004300001D526F00406C4F81CA00027C4F818A0B3
:100440002A2D09D0284602F0A5FB38B304EB870813
:10045000303DC8F8185019E059F8041B204604EB49
:1004600087029161E1688847012F054618D1E0694C
:10047000002820DA26F020061DE0D8F8180000EB4E
:10048000800005EB40003038C8F818002046E168CD
:100490008847054602F07EFB0028EED1012F0AD0E6
:1004A0002E2D08D12046E16888477F1C0546022F83
:1004B00046F02006C4DBA069002803DA404246F07B
:1004C0000106A061F00701D026F010066C2D0BD0BC
:1004D000682D09D04C2D39D06A2D35D0742D35D0EA
:1004E0007A2D33D016E038E0E1682F462046884761
:1004F000B842054609D16C2F26D04FF48060E168E0
:10050000064320468847054604E06C2F1AD04FF476
:10051000807006430DB3A5F14100192802D820359B
:1005200046F400664A462946204626604E46FFF7B6
:1005300039FE80B101280BD0F61D26F0070000F12E
:10054000080956E74020E4E78020D8E70020D6E7F6
:1005500006F104094DE7284652E7206ABDE8F09FFE
:100560008038000030B505460B462A4613F8014B8B
:1005700012F8010B08B1A042F8D01CB1002802D03B
:100580006D1CF1E7284630BD40EA0103024630B554
:100590009B0710D14FF0013400E008C208C91D1BB1
:1005A0009D4315EAC41FF8D013F0FF0102F8011BA8
:1005B0000DD01B0AF8E711F8013B002B02F8013BB4
:1005C00005D011F8013B002B02F8013BF3D130BDFF
:1005D00010B5431C02E010F8011B71B18107FAD17C
:1005E0004FF0013202C88C1A8C4314EAC211F9D0C0
:1005F000C01A0A0603D0C01E10BDC01A10BD0A04DE
:1006000001D0801E10BD0902FCD0401E10BD421E4C
:1006100012F8013F002BFBD111F8013B002B02F82F
:10062000013BF9D170474FF0000200B513469446E4
:100630009646203922BFA0E80C50A0E80C50B1F13A
:100640002001BFF4F7AF090728BFA0E80C5048BF4E
:100650000CC05DF804EB890028BF40F8042B08BFEC
:10066000704748BF20F8022B11F0804F18BF00F8E8
:10067000012B7047704770477047704770B504464C
:1006800085690068C10601D5302600E02026C00734
:1006900007D070BDD4E9012130469047206A401C44
:1006A00020626D1EF6D570BD70B504468569007870
:1006B000C00707D170BDD4E9012120209047206AEE
:1006C000401C20626D1EF6D570BD09684A0501D533
:1006D00040B27047C905FCD500B2704709684A05A9
:1006E00001D5C0B27047C905FCD580B270472DE96D
:1006F000F0470D4699469246044600F124080168E9
:10070000880604D5E06921F01001216000E0012095
:10071000A84201DD471B00E00027A1697A1902EB1E
:100720000900081AA0612078C00602D42046FFF70D
:10073000A5FF002608E0D4E901211AF80600904739
:10074000206A401C761C20624E45F4DB2078C006EF
:100750000AD52046FFF792FF06E0D4E901213020B8
:100760009047206A401C2062381EA7F10107F4DC84
:1007700007E0D4E9012118F805009047206A401CE1
:100780002062281EA5F10105F3DC2046FFF78CFF4F
:100790002078000602D50220BDE8F0870120FBE7A3
:1007A00011680268006A530501D508700AE0D30594
:1007B00001D5088006E0130603D5C217C1E900027F
:1007C00000E008600120704770472DE9FF4F0C469C
:1007D0001E464FF0FF378BB0D2E90001DDF8608094
:1007E0000A908A46C1F30A5505B93D4600210846DC
:1007F0004FF00000BAF1000F00F4400005DA00EB02
:1008000080004FF4400101EA50004FEA9059B9F1DD
:10081000010F00DDB9460A9850EA4A000ED044F6AE
:100820001050A5F2FF3545432F14B8F1000F1ED02C
:100830007542291E1EDDC9F100021CE0B8F1010F4E
:100840004FF0000001D0302103E0F24305E02154D5
:10085000401CB042FBDB30460022002121540B99A2
:10086000C1F80880C1E900200FB0BDE8F08FBD1BC2
:100870006D1CDEE74A4600DA694206A800F0B6FBC6
:1008800006AB93E8070003AB83E8070050460A99DC
:1008900000F0B6FC8DE80700A0F500501F3800906E
:1008A0000398002D09DD42F21F014A46084403A9BE
:1008B0000390684600F015FF08E0A0F500504A4696
:1008C0001F3803A90390684600F01FFF8DE807005A
:1008D0000004000C03D04FF0FF30410800E0104648
:1008E000B8F1000F03D00022009215461EE0751EDD
:1008F00005D400F0DFFA303262556D1EF9D5B346EB
:100900000122084302D000227F1C04E02078302816
:1009100001D100227F1E002A099786D01DE0112DEB
:1009200007DA00F0C7FA303262556D1C50EA010256
:10093000F5D1084302D00098C8B10EE00021681E2E
:1009400005E0235C625C63542254401E491C8142D2
:10095000F7DBAB46A81B401E0990002004F80B00F3
:100960000B98099AC0F80880C0E9002B7CE7112693
:100970004FF0000859E72DE9F04F88460446D21D94
:1009800022F0070191B0D1E90001CDE90A0102F09E
:10099000EDF802460B98C00F01D02D2007E020682B
:1009A000810701D52B2002E0202101EAC000032AA3
:1009B000099001D0072A05DB03464146204600F096
:1009C000BFFA0BE12078800601D5E06900E006203F
:1009D000B8F1650F814606D0B8F1660F18D0B8F1AE
:1009E000670F70D131E00020B9F1110F009001DBE9
:1009F000112301E009F101030AAA01A90CA8FFF7DC
:100A0000E4FEDDE90C70002609F10105834647E0AC
:100A100001204B4600904FF000470AAA01A90CA8FC
:100A2000FFF7D3FEDDE90DB00C995D46002610B945
:100A300009F101000D18B9EB050003D4C0F1FF3630
:100A400009F10105A5EB09002BE0B9F1010F01DA6D
:100A50004FF001090020B9F1110F0090484601DD67
:100A6000112300E003460AAA01A90CA8FFF7ADFE76
:100A7000DDE90C704D4600268346207800070AD435
:100A8000AB4500DA5D4601A8012D04DD411911F8DE
:100A9000011C302907D04F4502DA17F1040F04DAA0
:100AA000012082460FE06D1EEEE7002F02DCED1BF9
:100AB0003E4403E0781CA84200DD7D1CB81B00F119
:100AC000010A4FF000472078000703D4AA4501DB54
:100AD0004FF0FF3A0021B7F1004F0DF143088DF8B8
:100AE000431024D002202B23002F01DA7F422D2334
:100AF0000A21021EA0F1010000DC5FB197FBF1FCAE
:100B000097FBF1F201FB1C7C17460CF1300C08F846
:100B100001CDEEE7A8F1010003702188090501D598
:100B2000452100E06521A0F1010800F8011C0998A9
:100B30000FA9A1EB0807FF1D00B10120411901EB2E
:100B4000EA70A1693844081A401EA0612078C006E6
:100B500002D42046FFF792FD099828B1D4E901217B
:100B60009047206A401C20622078C00622D520468B
:100B7000FFF784FD1EE0002E04DBB34502DD01A873
:100B8000805D00E03020D4E901219047206A401CBC
:100B90002062761CAAF101005FEA000A0AD100F087
:100BA00085F9C0680168405CD4E901219047206A5A
:100BB000401C2062281EA5F10105DCDC07E0D4E919
:100BC000012118F8010B9047206A401C2062381E52
:100BD000A7F10107F3DC2046FFF766FD032011B003
:100BE00043E6000001694A1C02610878704700B5BD
:100BF0008FB0CDE901310021059105497944CDE956
:100C0000031011466846FFF7E9FB0FB000BD000076
:100C1000E5FFFFFF0A6802F8010B0A60704710B594
:100C2000436913B1AFF3008001E0FFF771FB0120CE
:100C300010BD127800F124010A7000224A700122CE
:100C4000EDE711684FF0FF32E9E70000074B70B5A0
:100C50000D467B44FFF7CBFF0446284600F034FAEC
:100C600010B14FF0FF3070BD204670BDB3210000C1
:100C70002DE9FF5F15468A460446DFF8AC80F8444C
:100C80000027D8E900103E46CDE9001010E03AF800
:100C900016106A4602A800F01BFA411C07D0217802
:100CA000890603D5E269391891420DD80744761CAC
:100CB0002078800602D5E069B84205DDAE42E6DB69
:100CC0003AF816000028E2D1A069C01BA0612046B6
:100CD000FFF7D4FCD8E90010CDE90010002017E0A0
:100CE0003AF818106A4602A800F0F2F9B0F1FF3F96
:100CF00081460BD000250DF1080B05E0D4E9012158
:100D00001BF8050090476D1C4D45F7D308F1010015
:100D1000B0428046E4DB206A384420622046FFF778
:100D2000C3FCBDE8FF9F0000023000002DE9F04148
:100D30008046D21D22F007020025D2E90002F529E3
:100D400015A614D0011E72F1000106DA0023D0EBC3
:100D5000030063EB020211A608E0D8F800108B072D
:100D600001D50FA602E0490701D50EA601251146BF
:100D7000002408F1240704E000F09CF830323A55D2
:100D8000641C50EA0102F7D12B4632462146404608
:100D9000BDE8F041FFF7ABBC000000002D000000F3
:100DA0002B0000002000000030B4002100F12404DA
:100DB00008E002F00705D208303542EA4372DB084A
:100DC0006554491C52EA0305F3D10468002310A2BC
:100DD000250708D504F020040C4304D0C46901237E
:100DE0000CA2641EC46130BCFFF781BC10B5044680
:100DF00021461068FFF772FC02462046BDE810400D
:100E00000023D1E7D21D22F00701D1E90023CBE76F
:100E10000000000030000000F0B40D460188090514
:100E200002D5214C7C4402E01F4C7C440E3400214E
:100E300000F1240608E002F00F071209E75D42EA1C
:100E400003721B097754491C52EA0307F3D1027855
:100E50000023120704D5702D06D009B102231134E6
:100E60002246F0BCFFF743BC01231034F8E770B50D
:100E700004460D4621461068FFF730FC024629461D
:100E80002046BDE870400023C6E7D21D22F00703CC
:100E9000D3E90023C0E70368126843F0200303602E
:100EA0000823C3610023B7E7642E000000487047A1
:100EB0004809002030B5B0F10A024FEA900E71F1F6
:100EC00000034EEA817EB0EB0E0061EB91014FEA28
:100ED000101E4EEA017E10EB0E0041EB11114FEA9D
:100EE000102E4EEA016E10EB0E0041EB11214FEA7D
:100EF000104E4EEA014E10EB0E0041EB114140182E
:100F000041F100014FEAD00040EA41704FEAD101BF
:100F100010EB80054FEA810444EA907444EB01042D
:100F20006D1944EB0404521BA3414FF0000348BF6A
:100F30000A3200D530BD401C41F1000130BD000037
:100F40002DE9F0411F46044603260168072A01F4F3
:100F5000006004DB08B116A505E016A503E008B1A2
:100F600015A500E015A521F010002060A069C01EA5
:100F7000A0610FB1401EA0612046FFF77FFB4FB17B
:100F8000D4E9012138469047206A401C2062C01CE9
:100F9000206206E0206AFAE7D4E9012115F8010B86
:100FA0009047761EF8D22046FFF77EFBBDE8F08121
:100FB0004E414E006E616E00494E4600696E6600FD
:100FC00010B5436913B1AFF3008001E0FFF750FEA5
:100FD000012010BD128800F1240182840022C28405
:100FE0000122EDE711684FF0FF32E9E72DE9F04704
:100FF000814616468AB0334878440DC88DE80D0006
:1010000030487844801C03AC0DC884E80D0041F6DC
:101010009B300844372190FBF1F290FBF1F5A5F1EC
:10102000800501FB12041B3C02D56442012000E054
:101030000020DFF890A080460027FA44AAF1BE0AFB
:101040000DE0E00709D03246684607EB47010AEB9E
:10105000810100F05AFB8DE8070064107F1C002C12
:10106000EFD1184F7F44AC3F18E0E80714D007EBEE
:1010700004100DF1180A90E80E008AE80E00C0680E
:10108000F04201D198190890324606A903A800F051
:101090003CFB03AB83E807006D10641C002DE4D11A
:1010A00032466946B8F1000F03A802D000F019FBE0
:1010B00001E000F02AFBC9E90001C9F808200AB0E4
:1010C000BDE8F087342D0000007B00F08000704701
:1010D00070B516460C46054600F044F8036893F8D0
:1010E0000101012806D0FF2C0FD8185D68B101203E
:1010F0002C7070BDD3F807013246214603F2071366
:1011000003442846BDE8704018474FF0FF3070BDDB
:1011100000487047280900207546FFF7F9FFAE46E2
:1011200005006946534620F00700854618B020B5F3
:10113000FFF7B0F8BDE820404FF000064FF0000781
:101140004FF000084FF0000B21F00701AC46ACE86F
:10115000C009ACE8C009ACE8C009ACE8C0098D46DC
:101160007047000010B5FFF7A1FE001D10BD00BFC5
:10117000552000000446AFF300802046FFF775F8C5
:101180004FF0013C50F8042B51F8043B9A4221D116
:10119000A2EB0C03934313EACC1317D150F8042BA2
:1011A00051F8043B9A4215D1A2EB0C03934313EA86
:1011B000CC130BD150F8042B51F8043B9A4209D1BF
:1011C000A2EB0C03934313EACC13DBD04FF00000E7
:1011D000704700BFD01A01BAB1FA81F101F01801CD
:1011E00022FA01F0CB40C1F12001DBB2C0B2C01A3B
:1011F0002CFA01F3D11A914311EAC311E6D17047D9
:101200005FEA400C08BF91F0000F4FEA8C234FEAD1
:10121000C12243EA51514FEA1C5018BF00F5F0407B
:101220004FEA300018BF41F000415FEA6C5C00F00B
:101230002980BCF1FF3F08BF40F080407047130C8D
:1012400006BF12044FF0100C4FF0000C130E04BF39
:1012500012020CF1080C130F04BF12010CF1040C64
:10126000930F04BF92000CF1020CD30F04BF520085
:101270000CF1010C11464FF00002A0F11F00A0EB91
:101280000C00704711F0004F08BF704731F000416B
:101290003FF4D5AF0B0C06BF09044FF0100C4FF014
:1012A000000C0B0E04BF09020CF1080C0B0F04BF5D
:1012B00009010CF1040C8B0F04BF89000CF1020C26
:1012C000CB0F04BF49000CF1010CCCF12003A0EBC3
:1012D0000C0022FA03F302FA0CF241EA030100F1D6
:1012E0000100704720F07F4C80EA030023F07F4725
:1012F000ACEB070303F57C5300F0004003F1FF0360
:101300002DE980494FEA154B09B44FEA144325EA09
:101310000B4E24EA03480FF2042606EB1327490874
:101320003E785FEA320203FB0667C7F5000707FB5A
:1013300006F64FEA54374FEAD64606F1020607FB97
:10134000066CCCF1005C4FEA1C472CEA074C07FB0B
:1013500006F40CFB06F504EB15464FEA961634BF6F
:1013600000204FF000404FEAD13706FB07FC4FEA60
:101370001C4C0CFB0BF7D21B03FB0CF761EB0701BA
:101380000CFB0EF7B0EB074072EB17420CFB08F7B3
:1013900034BFA2EB0742B2EB074261EB17414FEAC1
:1013A0000C444FEA910706FB07FC4FEA1C4C0CFB70
:1013B0000BF7B0EBC74072EB573203FB0CF734BFAF
:1013C000A2EBC742B2EBC74261EB57310CFB0EF701
:1013D000B0EBC70072EB57720CFB08F734BFA2EBFF
:1013E000C702B2EBC70261EB5771039F4FEA8161FD
:1013F00041EA921104EBCC044FEAD1374FEA826202
:1014000006FB07FC42EA90124FEA80604FEA1C4C50
:101410000CFB0BF7D21B03FB0CF761EB07010CFB7A
:101420000EF7B0EB074072EB17420CFB08F734BF26
:10143000A2EB0742B2EB074261EB17414FEA8C5532
:101440004FEA910704EB9C2406FB07FC4FEA1C4C77
:101450000CFB0BF7B0EBC74072EB573203FB0CF7FA
:1014600034BFA2EBC742B2EBC74261EB57310CFB72
:101470000EF7B0EBC70072EB57720CFB08F734BFE6
:10148000A2EBC702B2EBC70261EB577115EB4C251B
:101490004FEA816141EA92114FEA82624FEAD13705
:1014A00042EA901206FB07FC44F100044FEA806018
:1014B0004FEA1C4C0CFB0BF7D21B03FB0CF761EB48
:1014C00007010CFB0EF7B0EB074072EB17420CFB69
:1014D00008F734BFA2EB0742B2EB074261EB1741BA
:1014E00015EB1C154FEA813141EA92414FEA8232F5
:1014F00042EA90424FEA80304FEA0C7644F1000411
:1015000048EA03434EEA0B484FF0000EB2EB080CDA
:1015100071EB030724BF624639464EEB0E0E4FF0C7
:10152000000B0018524149414BEB0B0BB2EB080C7E
:1015300071EB03077BF1000B24BF624639464EEB8B
:101540000E0E4FF0000B0018524149414BEB0B0BB4
:10155000B2EB080C71EB03077BF1000B24BF624672
:1015600039464EEB0E0E51EA020718BF46F001064F
:1015700016EB0E7655F1000254F1000103D5BDE8DB
:101580008901BDE80088BDE88901BDE80048B619B9
:10159000524141EB0101A3F10103704780807F7E3E
:1015A0007D7C7B7A797877767675747372717170D9
:1015B0006F6E6E6D6C6C6B6A6A696868676666658B
:1015C0006464636362616160605F5F5E5E5D5D5C19
:1015D0005C5B5B5A5A59595858575756565555558A
:1015E0005454535352525251515050504F4F4F4EEA
:1015F0004E4D4D4D4C4C4C4B4B4B4A4A4A49494938
:101600004848484747474746464645454544444479
:10161000444343434342424242414141002B26D48A
:10162000770021D01CB54FEA370703B44FF0100004
:101630004FF010014FF000000FBCBDE810400BF15F
:10164000010BBBF1010F08BF5FEA170722BF12F1C0
:10165000010211F101014FF0004143F1000300F0DC
:10166000004043EA00007047F9D35708DAE746EA3A
:10167000064613F1400F4FEA16461FDD13F1200F07
:10168000DFBF16430A46002120335B42C8D0C3F1B6
:10169000200746EA064602FA07F74FEA164646EAE8
:1016A0000706C3F1200722FA03F201FA07F721FA2D
:1016B00003F14FF0000342EA0702B1E746EA0206EF
:1016C00046EA06464FEA164646EA0106BCBF46EA27
:1016D0000646360C4FF000034FF000024FF00001B9
:1016E0009EE72DE9C048934630B491E8380007C81A
:1016F00031EA400C48BF34EA430C03D5FFF7F2FD52
:10170000FFF78CFFF0BCBDE800882DE9C048934688
:1017100030B491E8380007C810F0804F08BF13F0CC
:10172000804F03D100F005F8FFF778FFF0BCBDE86B
:10173000008820F07F4780EA030023F07F4C07EB0E
:101740000C03A3F57C5300F00040A3F1FE0392F0DC
:10175000000F00F0B38095F0000F00F077802DE9C6
:1017600001494FEA11404FEA144621EA004800FBC4
:1017700006FC24EA064708FB06F607FB08F800FB10
:1017800007F718EB06484CEB164C4FEA124B18EBD8
:1017900007484FEA15464CEB174022EA0B4E0BFB6D
:1017A00006FC25EA06470EFB06F607FB0EFE0BFBC2
:1017B00007F71EEB064E4CEB164C4FF000061EEBE7
:1017C000074E4CEB174B18EB0B0840F1000018EBE1
:1017D0000E0B58EB000840F100008F1A4FF000018B
:1017E0003CBFC943661B14BFB5EB040C00213CBFD2
:1017F000C943F61B4FEA17444EEA8E0E27EA04450A
:101800004FEA1C4704FB07622CEA074C05FB07F76D
:101810000CFB05F604FB0CFC16EB074642EB1742EB
:1018200016EB0C4642EB1C421BEB060658EB020281
:10183000414146EA9E0601D5BDE80189B6195241EB
:1018400041EB0101A3F10103BDE801894FEA144511
:101850004FEA114724EA054621EA074C05FB07F445
:1018600006FB07F70CFB06F105FB0CFC11EB07412F
:1018700044EB17444FEA124711EB0C4144EB1C4474
:1018800022EA074C05FB07F206FB07F70CFB06F6FE
:1018900005FB0CFC16EB074642EB174216EB0C4619
:1018A00042EB1C456A1854F1000148BF7047B61955
:1018B000524141EB0101A3F10103704795F0000F84
:1018C00037D04FEA11424FEA144721EA024624EA90
:1018D000074C02FB07F106FB07F70CFB06F402FBC3
:1018E0000CFC14EB074441EB17414FEA154714EB8E
:1018F0000C4441EB1C4125EA074C02FB07F506FBB3
:1019000007F70CFB06F602FB0CFC16EB074645EB53
:10191000174516EB0C4645EB1C42121951F100011C
:1019200048BF7047B619524141EB0101A3F10103D1
:1019300070474FEA14454FEA114724EA054621EA69
:10194000074C05FB07F106FB07F70CFB06F24FF00F
:10195000000605FB0CFC12EB074241EB174112EBB2
:101960000C4251EB1C4148BF7047921841EB0101FA
:10197000A3F10103704700BFFEE7000010B500248B
:101980001548006820F47040134908600846006854
:1019900040F40040086004E0601CC4B2012001F083
:1019A0000DFA0E48006808B1642CF5DB642C01DBED
:1019B000012010BD002404E0601CC4B2012001F02D
:1019C000FDF90648006808B9642CF5DB642C01DBDE
:1019D0000120EEE70020ECE7040C01402C812142BD
:1019E00008B50121082000F073FA4FF40060ADF84B
:1019F000000010208DF8030003208DF802006946D6
:101A0000064800F05FF94FF40061054800F0E7F97F
:101A100000F06AF8FFF7B2FF08BD000000200140A7
:101A2000000C014010B5002404E0601CC4B2012089
:101A300001F0C4F90D48006808B1642CF5DB0024FE
:101A400004E0601CC4B2012001F0B8F90748006846
:101A500008B9642CF5DB282001F0B0F903480068D0
:101A600008B1012010BD0020FCE700002C812142BC
:101A700070B50024002506E06006040EFFF7D2FFD3
:101A80000443681CC5B2082DF6DB204670BD7CB54A
:101A900005460E4600F028F8FFF770FFF8B900245D
:101AA00005E0FFF7E5FF0DF80400601CC4B2052C4B
:101AB000F7DB9DF800009DF8011008449DF8021026
:101AC00008449DF8031008449DF80410884208D18A
:101AD0009DF8000030709DF80200287001E00120A0
:101AE0007CBD0020FCE7000010B50C48006820F425
:101AF00070400A4908600846006840F44050086099
:101B0000002007490860142001F032F9012005493E
:101B1000C1F8AC011E2001F051F910BD040C0140C8
:101B2000AC812142008021427047000010B5322074
:101B300001F01EF9802000F047F828B300201B496F
:101B400008601B480078E0B900201A4908804FF46B
:101B50009670091D08804FF47A7001F009F9002091
:101B600014490880091D08800120114908704CF2B1
:101B7000503081068885002088840121880700F084
:101B800064FC802000F01AF8202000F01DF860B1FD
:101B90000020064908600849C1F890014FF44870D8
:101BA00001F0C6F9202000F009F810BDB0812142F3
:101BB00010000020382C014000002142014908603B
:101BC0007047000014040140014600200022074B2A
:101BD0001B6803EA0102054B14331B680B4013B169
:101BE0000AB1012000E0002070470000000401401D
:101BF000002123498279002A3AD00A4612680368F4
:101C00009A430B461A600A1D126803689A430B1D1B
:101C10001A60027911440A6803681A430A60184A74
:101C20000832126803689A43154B08331A601A1D6C
:101C3000126803689A43124B0C331A604279102AD7
:101C40000ED11A1F126803681A430D4B08331A602D
:101C50001A1D126803681A43094B0C331A600DE011
:101C60000749427911440A6803681A430A6005E08B
:101C7000027911440A6803689A430A6070470000B9
:101C80000004014030B500228B071C0F0F2303FA1C
:101C900004F20B4B8C1053F824309343084C8D10F6
:101CA00044F8253023468C1053F824308C07240F39
:101CB00000FA04F42343024C8D1044F8253030BD63
:101CC000080001402DE9F0410246002500260020D1
:101CD00000230024002791F803C00CF00F0591F8B1
:101CE00003C00CF0100CBCF1000F03D091F802C03F
:101CF0004CEA050591F800C0BCF1000F31D0146822
:101D000000202BE04FF0010C0CFA00F3B1F800C0FA
:101D10000CEA03069E4220D183004FF00F0C0CFA10
:101D200003F7BC4305FA03FC4CEA040491F803C032
:101D3000BCF1280F06D14FF0010C0CFA00FCC2F8E0
:101D400014C00AE091F803C0BCF1480F05D14FF070
:101D5000010C0CFA00FCC2F810C0401C0828D1D3BA
:101D60001460B1F800C0BCF1FF0F34DD54680020EE
:101D70002EE000F1080C4FF0010808FA0CF3B1F85E
:101D800000C00CEA03069E4221D183004FF00F0CE5
:101D90000CFA03F7BC4305FA03FC4CEA040491F87F
:101DA00003C0BCF1280F05D100F1080C08FA0CF8AB
:101DB000C2F8148091F803C0BCF1480F07D100F1BC
:101DC000080C4FF0010808FA0CF8C2F81080401C0B
:101DD0000828CED35460BDE8F081416170470161AD
:101DE000704700BFFEE7000008B50121082000F0A1
:101DF0006FF84FF48050ADF8000010208DF803000C
:101E000003208DF8020069460448FFF75BFF4FF49A
:101E100080510248FFF7E3FF08BD0000000C0140BD
:101E200000BFFEE77047000070B5002100230F22BD
:101E3000C47804B3154C246804F4E064C4F5E06489
:101E4000210AC1F10403CA40447804FA03F18478FA
:101E50001440214309010E4C0678A155047804F082
:101E60001F050124AC4005786D11AD0005F1E0259A
:101E7000C5F8004109E0047804F01F050124AC40D6
:101E8000044D0678761145F8264070BD0CED00E053
:101E900000E400E080E100E002490143024A1160F1
:101EA000704700000000FA050CED00E070470000EC
:101EB00029B1064AD2690243044BDA6104E0034ABD
:101EC000D2698243014BDA61704700000010024082
:101ED00029B1064A92690243044B9A6104E0034A1D
:101EE00092698243014B9A617047000000100240E2
:101EF00030B500210022002400232D4D6D6805F02F
:101F00000C0121B1042905D0082923D105E0294D70
:101F1000056022E0274D05601FE0254D6D6805F442
:101F20007012234D6D6805F48034022505EB924252
:101F30001CB9214D554305600BE01D4D6D6805F43E
:101F400000351DB11C4D5543056002E0194D554348
:101F5000056002E0174D056000BF00BF144D6D68BD
:101F600005F0F0010909154D6B5C0568DD40456021
:101F70000F4D6D6805F4E061090A104D6B5C456812
:101F8000DD4085600A4D6D6805F46051C90A0B4D4E
:101F90006B5C4568DD40C560054D6D6805F44041EA
:101FA000890B074D6B5CC568B5FBF3F5056130BD6A
:101FB0000010024000127A0000093D00400000209D
:101FC00050000020704710B500F002F810BD00006E
:101FD0000CB50020019000903348006840F4803038
:101FE0003149086000BF3048006800F400300090BC
:101FF0000198401C0190009818B90198B0F5A06FA5
:10200000F1D12948006800F4003010B1012000909F
:1020100001E0002000900098012843D12348006887
:1020200040F01000214908600846006820F00300D5
:1020300008600846006840F0020008601A484068DE
:10204000194948600846406848600846406840F4BE
:10205000806048600846406820F47C10486008466C
:10206000406840F4E81048600846006840F080701E
:10207000086000BF0C48006800F000700028F9D02C
:102080000948406820F00300074948600846406856
:1020900040F00200486000BF0348406800F00C00B8
:1020A0000828F9D10CBD00000010024000200240B9
:1020B000042808D14FF0E021096941F004014FF0F4
:1020C000E022116107E04FF0E021096921F00401ED
:1020D0004FF0E022116170477047000010B51348BF
:1020E000006840F001001149086008464068104946
:1020F00008400E494860084600680E4908400B49F0
:1021000008600846006820F480200860084640689F
:1021100020F4FE0048604FF41F008860FFF753FF73
:102120004FF000600449086010BD0000001002403C
:102130000000FFF8FFFFF6FE08ED00E008B5012102
:10214000C802FFF7C5FE01210820FFF7C1FE4FF4CA
:102150004040ADF8000018208DF8030003208DF8F2
:10216000020069460148FFF7ADFD08BD000C0140C3
:1021700030B587B0962596246000ADF81400002095
:10218000ADF81000ADF81600ADF8120004A92A4809
:1021900000F04AFA7020ADF800000120ADF802000E
:1021A0000420ADF80400ADF806500220ADF8080098
:1021B0000820ADF80A004001ADF80C000020ADF891
:1021C0000E0069461C4800F075F908211A4800F015
:1021D000C3F97020ADF800000120ADF80200042022
:1021E000ADF80400ADF806400220ADF80800082064
:1021F000ADF80A004001ADF80C000020ADF80E006B
:1022000069460D4800F0B6F908210B4800F002FAC3
:102210000121094800F00AF90121074800F015F9E9
:102220000121054800F01DF90020034938310880DC
:10223000091D088007B030BD002C014010B5FFF724
:102240007DFFFFF795FF10BD10B50121880700F055
:1022500017F950B315480068401C14490860084637
:1022600000680A2821DB4FF47A50114908600020E9
:102270000E4908604FF496700E4908800020091D31
:1022800008804FF47A7000F073FD00200A4908704E
:1022900008490880091D08800121880700F0D2F84C
:1022A00000214FF0804000F0D0F810BD1400002055
:1022B00024000020382C0140100000207FB5054686
:1022C0000C4601210846FFF7F3FDADF80850ADF8C4
:1022D00004400020ADF80A00ADF8060001A94FF057
:1022E000804000F0A1F901221146900700F0D9F8D2
:1022F0001C208DF8000000208DF801008DF80200F0
:1023000001208DF803006846FFF78EFD00214FF095
:10231000804000F09AF87FBD10B50121054800F01B
:10232000AFF830B104A000F011FE0121014800F027
:1023300089F810BD00040040746573740D0A000034
:1023400010B50C48008800F0010088B10A480088E8
:1023500040F40040084908800648008820F0010049
:1023600004490880054800F09BFC002000F034F888
:1023700010BD0000100800400C0000206004002088
:102380007FB505460C4601210420FFF791FDADF80D
:102390000450ADF800400020ADF80600ADF8020092
:1023A00069460C4800F040F901221146094800F046
:1023B00078F81E208DF80C0001208DF80D00022009
:1023C0008DF80E0001208DF80F0003A8FFF72CFDFB
:1023D0007FBD00000008004058B10021094A11806B
:1023E00008492439098841F00101064A243A11803C
:1023F00007E004492439098821F00101014A243AFF
:10240000118070472408004010B50121054800F0F4
:1024100037F830B10020044908600121014800F07C
:1024200011F810BD00140040B081214221B1028892
:1024300042F08002028004E002884FF67F731A4067
:1024400002807047CA430282704721B1028842F07D
:102450000102028004E002884FF6FE731A400280F7
:10246000704731B1B0F8442042F40042A0F8442053
:1024700005E0B0F84420C2F30E02A0F844207047F3
:1024800030B50246002000230024158A05EA010326
:10249000958905EA010413B10CB1012000E0002088
:1024A00030BD1AB183890B43838102E083898B435A
:1024B0008381704770B5002400220023058C4FF6FD
:1024C000EF7635400584028C8388048B48F6FF75CF
:1024D0002C404FF6FF452C400D884FF6FF7606EA5C
:1024E00005252C434FF6DF752A400D8906EA0515B0
:1024F0002A434D8806EA05152A43154DA84202D005
:10250000144DA8421DD14FF67F752A404D894FF6D4
:10251000FF7606EA05152A434FF6BF752A408D88D7
:1025200006EA05152A434FF6FF352B404FF2FF759B
:102530002B408D8906EA85052B43CD8906EA850562
:102540002B4383800483CD880587028470BD0000FF
:10255000002C0140003401400A460021018B4FF25B
:10256000FF7319404FF6FF7303EA022319430183F7
:102570007047000070B5002400220023058C4FF640
:10258000FF6635400584028C8388848B4FF68F75F7
:102590002C404FF6FC752C400D882C434FF6FF5510
:1025A0002A400D894FF6FF7606EA05252A434D8815
:1025B00006EA05252A43154DA84202D0144DA8422B
:1025C0001DD14FF2FF752A404D894FF6FF7606EA7E
:1025D00005252A434FF6FF352A408D8806EA052552
:1025E0002A434EF6FF752B404DF6FF752B408D8923
:1025F00006EA05152B43CD8906EA05152B43838092
:102600008483CD888587028470BD0000002C014042
:10261000003401400A460021818B4FF6F7731940C0
:102620001143818370470000002202881D4B9842AD
:102630000ED01D4B98420BD0B0F1804F08D01B4BF1
:10264000984205D01A4B984202D01A4B984204D1B6
:102650004FF68F731A404B881A43174B984207D096
:10266000164B984204D04FF6FF431A40CB881A43CA
:1026700002808B8883850B8803850A4B98420BD098
:10268000094B984208D00E4B984205D00D4B98420A
:1026900002D00D4B984201D10B7A0386012383822D
:1026A00070470000002C014000340140000400404D
:1026B00000080040000C00400010004000140040E2
:1026C00000400140004401400048014010B540F284
:1026D00025511B4800F0D8F8F8B1194800F090F9DE
:1026E000C4B21848008800F40040B0B9154800880A
:1026F00000F4804048B10A2C03D000201149088022
:102700001DE000200F49088019E00D2C06D10D486E
:10271000008840F480400B49088010E00948008898
:10272000C0F30D0008490C5406480088401C0549B8
:10273000088008460088C72801DD0020088010BDF9
:10274000003801405C0000206008002000B51348FC
:10275000008800F0200000B31048001D0088C3B2BC
:102760000F48008800F4004088B900200D49088017
:102770000B48008810B90120FFF72EFE0848018899
:102780000088401C064A10800748435405E004486E
:10279000008840F400400249088000BD0044004029
:1027A0000C000020240800406004002038B50546D5
:1027B0000C462A48806940F004002849886128486E
:1027C000006820F47F40264908600846006840F40D
:1027D0000B4008602148C06940F400301F49C861BF
:1027E0000846006940F4003008610846006920F49A
:1027F000003008611B486843B0FBF4F01A490880B8
:10280000081D008842F20C0108431749091D088081
:102810000846008840F020000880012240F225513F
:102820001148083800F05AF826208DF800000220E0
:102830008DF8010003208DF8020001208DF80300BF
:102840006846FFF7F1FA41F61F416320FFF798FD54
:10285000002006490880FFF7BFFD38BD0010024088
:102860000008014040420F00084400400C000020D6
:1028700021B1828942F40052828104E082894DF6BE
:10288000FF731A408281704770B50246002400230E
:102890000025002040F66A16B14200D100BFC1F306
:1028A000421501F01F03012606FA03F3012D02D1A0
:1028B0009689334006E0022D02D1168A334001E0AA
:1028C000968A33400C12012606FA04F41688344026
:1028D00013B10CB1012000E0002070BDF0B503463B
:1028E000002400260025002040F66A17B94200D1D6
:1028F00000BF1846C1F3421401F01F06012707FA72
:1029000006F5012C01D10C3004E0022C01D110306D
:1029100000E014301AB107682F43076002E007682F
:10292000AF430760F0BD00002DE9F04786B00546D3
:102930000E460024A24600BFA1460027B08900B180
:1029400000BF2F462C8A4CF6FF700440F0880443E9
:102950002C82AC894EF6F3100440B08831890843CC
:10296000718908430443AC81AC8A4FF6FF400440B0
:10297000B0890443AC8201A8FFF7BAFA1F48874226
:1029800002D1DDF810A001E0DDF80CA0A88900F468
:10299000004040B10AEBCA0000EB0A103168490060
:1029A000B0FBF1F807E00AEBCA0000EB0A1031684F
:1029B0008900B0FBF1F86420B8FBF0F004012009B5
:1029C000642101FB1089A88900F4004040B1322045
:1029D00000EBC900B0FBF1F000F00700044308E091
:1029E000322000EB09106421B0FBF1F000F00F0081
:1029F00004432C8106B0BDE8F08700000038014098
:102A000001468888C0F30800704700002DE9F04FA8
:102A100089B00446002007908246069020608146D7
:102A200062E000203849086020213848FFF7D7F9D4
:102A30000A2000F09DF920213448FFF7CEF900204C
:102A40004FF08041888401218807FFF7FEFC00BF1A
:102A50002F4800680028FBD000BF2D48006828B12F
:102A60002948006843F698218842F6D34FF0804009
:102A7000808C254908600846006843F69521884205
:102A800023D20AF1010000F0FF0A1F48006801F09C
:102A90000DF82049019001F01DF8834600F018FF61
:102AA00000221D4BCDE9020100F07CFC0746884660
:102AB000069800F00DFF3A464346CDE9040100F0C8
:102AC000C9FB054600F094FB069000214FF08040C2
:102AD000FFF7BBFC00200C4908603C2000F048F9DF
:102AE00009F1010000F0FF09B9F1050F99DB50462B
:102AF00000F0DCFF05462946069800F015FF20602F
:102B000009B0BDE8F08F000024000020000C014057
:102B10001881214200002A4300408F4008B501215E
:102B20000820FFF7D5F92020ADF8000003208DF82C
:102B3000020010208DF8030069460A48FFF7C2F82A
:102B400020210848FFF749F94020ADF80000032094
:102B50008DF8020004208DF8030069460148FFF754
:102B6000B1F808BD000C014000BFFEE7490050EA83
:102B7000C12018BF04204A0D18BF40F0010040F2E8
:102B8000FF72B2EB515F08BF40F00200012808BF9E
:102B90000520704730380A2801D2012070470020F4
:102BA0007047014600BF70471CB54FF4A060FFF7A7
:102BB00073F900F0BBF84FF4E13000F083FA4FF402
:102BC000E1312420FFF7F2FD40F2CF214CF24F30EB
:102BD000FFF774FBFFF708F9FFF730FB00F022F96D
:102BE00000F06CF900F0BEFA05E016A0FDF784FBDA
:102BF000C82000F0BDF8FEF7F3FE0028F5D117A0BD
:102C0000FDF77AFBFFF78AFF00211A48FFF71DFC4A
:102C100017E019491948FEF73AFF1948FFF7F6FE81
:102C20001748006800F054FECDE900011248027810
:102C30001248017813A0FDF75FFB4FF47A7000F0A3
:102C400097F8E6E7646874313120696E697420662C
:102C500061696C6564210D0A000000002D2D2D2D89
:102C60002D2D2D2D2D2D2D2D2D2D2D2D2D2D2D2D94
:102C70000A000000000400401D0000201C0000208D
:102C8000200000200D0ACEC2B6C83A25640ACAAA9E
:102C9000B6C83A25640ABEE0C0EB3A25660A0000D1
:102CA00010B504460148FDF709FB10BD6004002083
:102CB0002DE9F04106460F4614464FF0000800206B
:102CC00016490880314616A000F0C4F917B30CB3BA
:102CD00018E00A2000F02CF91048008800F40040A9
:102CE00080B100200D490988C1F30E010E4A5054ED
:102CF00039461046FDF736FC054605B106E00020D2
:102D000006490880601E80B20400E2D100BF0CB901
:102D10004FF001084046BDE8F08100000C000020A3
:102D200025730D0A000000006004002010B56FF04C
:102D30000400FFF7BDF90A4800680A49B0FBF1F04A
:102D4000094908700846007800EB4001C1EBC0104B
:102D50004FF6FF7101EAC0000449088010BD000071
:102D60002C00002000127A005400002056000020A1
:102D70000146114A12884A434FF0E0235A6100226B
:102D80009A611A46126942F001021A6100BF4FF0BF
:102D9000E022106900F001021AB100F48032002A2A
:102DA000F5D04FF0E022126922F001024FF0E0234B
:102DB0001A6100229A617047560000200146114AAC
:102DC00012784A434FF0E0235A6100229A611A4672
:102DD000126942F001021A6100BF4FF0E02210694F
:102DE00000F001021AB100F48032002AF5D04FF051
:102DF000E022126922F001024FF0E0231A61002262
:102E00009A6170475400002000BF054A128802F002
:102E10004002002AF9D0C2B2014B1B1D1A80704734
:102E2000003801401FB501210420FFF751F8802030
:102E3000ADF80C0028208DF80F0003208DF80E004F
:102E400003A91448FEF73EFF80211248FEF7C7FF92
:102E500007210020FEF716FF8020009000208DF84B
:102E600004000C208DF8050001208DF8060068464E
:102E7000FEF7BEFE17208DF8080002208DF809002D
:102E800003208DF80A0001208DF80B0002A8FEF740
:102E9000CBFF1FBD00080140FFF786FE08E00120C0
:102EA000044908600449C1F89001642000F040F82A
:102EB000F5E70000B0812142000021421FB5012149
:102EC0000420FFF705F82020ADF80C0028208DF82D
:102ED0000F0003208DF80E0003A91448FEF7F2FE40
:102EE00020211248FEF77BFF05210020FEF7CAFED5
:102EF0002020009000208DF804000C208DF80500A3
:102F000001208DF806006846FEF772FE17208DF846
:102F1000080002208DF8090003208DF80A00012026
:102F20008DF80B0002A8FEF77FFF1FBD00080140CF
:102F300006E042F6E06100BF0A00A1F10101FBD109
:102F40000200A0F1010398B2F3D1704710B59AB016
:102F5000044664216846FDF766FB1A208DF864007C
:102F60000D208DF865000A208DF866006421684602
:102F7000FDF759FB21A16846FDF706FB24480168CF
:102F80006846FDF744FB23A16846FDF740FB224855
:102F900001686846FDF73BFB20A16846FDF737FB5B
:102FA0004FF4C8721EA16846FFF782FE50B11DA003
:102FB000FDF7A2F90520FFF7BBFFC82218A168465C
:102FC000FFF776FE1BA000F045F82820FFF7B0FFC2
:102FD000142221462046FFF76BFE142219A919A8D6
:102FE000FFF766FE1420FFF7A3FF28220CA115A00F
:102FF000FFF75EFE01201AB010BD000041542B43C4
:10300000495053544152543D22544350222C2200E3
:1030100000000020222C0000040000200D0A000007
:103020004F4B0000636F6E6E6574206661696C655E
:10303000643F0A0041542B43495053454E440D0A06
:103040000000000041542B434950434C4F53450D61
:103050000A0000000FB438B505A800901248009A85
:103060000499FDF737F90020009010A0FDF744F90E
:103070000D48FDF723F90C48FDF7AAFA85B20024A4
:103080000DE000BF0E48008800F040000028F9D095
:103090000548005D0A49091D0880601C84B2AC42E5
:1030A000EFDB38BC5DF814FB600000200A20202014
:1030B0002020202020202020B4AEBFDA323A0000A9
:1030C0000044004010B586B00446012144F20400DB
:1030D000FEF7FEFE4FF40070ADF8140003208DF8EB
:1030E000160018208DF8170005A91C48FEF7EAFD08
:1030F0004FF48060ADF8140004208DF8170005A986
:103100001648FEF7DFFD25208DF8000000208DF821
:1031100001008DF8020001208DF803006846FEF7DB
:1031200083FE01940020ADF80800ADF80A00ADF868
:103130000C00ADF810000C20ADF80E0001A90848F5
:10314000FFF7F2FB012240F225510548FFF7C6FBCD
:1031500001210348FFF78CFB06B010BD00080140B9
:103160000038014008B501210420FEF7B1FE10200F
:10317000ADF8000028208DF8030003208DF8020030
:1031800069460448FEF79EFD10210248FEF727FE1F
:1031900008BD00000008014010B500290AD00878D9
:1031A000002807D005487844FDF7EAFF002801D041
:1031B000002010BD0248784410BD0000DA0B00006A
:1031C000D20B000010B500290AD00878002807D0DB
:1031D00005487844FDF7D4FF002801D0002010BD39
:1031E0000248784410BD0000CA0B0000C20B00006A
:1031F00021F00042A2F16052B2F5801F01F00043BD
:1032000028BFD2F17F6C0BD95FEA001C43EAC202EF
:1032100042EB507018BF704728BF20F00100704784
:10322000B2F5801FBCBF184670474FEA410C1CF531
:10323000001F02D2084600F014BD70B500F00AFA73
:1032400000000089FFF7F6BF4FF00040A0F58000B6
:103250007047000010B591EA030F48BF83F00043A8
:1032600000F15482841A71EB030C05D2121943EB5E
:103270000C03001B61EB0C01DFF824E14FEA115451
:10328000A4EB135C1EEA430F18BF9EEA445F73D0A1
:1032900023EA0E03DCF1200E21EA045143F48013EB
:1032A00032D322FA0CFE10EB0E0023FA0CFE41EB97
:1032B0000E01CCF1200E03FA0EFE10EB0E0051F1C0
:1032C0000001B1F5801FCCF1200E32D201EB045188
:1032D00012FA0EF2BDE8104058BF7047401C38BFCC
:1032E0005FEA420218BF7047002814BF20F00100B7
:1032F00041F100014FEA410313F5001F38BF704749
:10330000A1F1C04100F0F4B9012A43EB0302ACF192
:10331000200CDCF11F0E32BF4FF0000E23FA0CF32D
:1033200010EB030041EB0451B4EB115FD0D0A1EBE3
:10333000045101F5801149085FEA300001EB0451A6
:103340000ED350F1000038BF12FA0EFE08D1BDE8CE
:103350001040C9E7401C38BF5FEA4202CAD1C3E748
:10336000BDE810404FEA410313F5001F38BF704716
:10337000A1F1C04100F0BCB99EEA445F08D011EA57
:103380005E0FBDE8104004BF01F00041002070470F
:10339000BDE8104070B500F05DF900BF64FBBE3EB3
:1033A0000000E0FF2DE9C04130B4DFF8A0C23CEAE4
:1033B000111418BF3CEA131400F0EC8081EA0305F5
:1033C0001CEA111444EAD57418BF1CEA131500F066
:1033D000C780A4EB05044FF0004545EAC12145EA4A
:1033E000C32341EA505143EA525304F17F74994296
:1033F00004F500344FEAC0204FEAC22208BF9042D1
:1034000000F09C804FEA13650FF24016765D4FEA9C
:10341000134506FB05F7C7F1807706FB07F74FEA70
:10342000D737A7FB03687642C8F58038A7FB06CEDE
:1034300038BFA8F1010807FB08E64FF0000EA6FB15
:10344000028CE6FB03CEDCF1000CCEF1004E38BF5F
:10345000AEF1010EA6FB0C584FF000074FF000052F
:10346000E6FB0E87A1FB08C6A0FB07CE16EB0E06F7
:1034700045F10005E1FB076515F1E04E7EBFA4F5BF
:1034800080345FEA46066D4116F1800745F100057C
:103490004FEA17274FEA066647EA0567A6F1DE46B8
:1034A000B6F1805F4FEA15251FD9384624F0010C8C
:1034B00005EBC471BCF1FE6F01EB0C1102D8F0BC3E
:1034C000BDE8008124425CBF01F5801E9EEAC47FF6
:1034D00002D4F0BCBDE80081244238D4F0BCA1F194
:1034E000C041BDE8004100F003B94FEAD22242EAF0
:1034F00043524FEAD323A7FB02864FEAD02040EA8B
:10350000415007FB03661EEA0E0F4FEAD12105FB6F
:10351000026658BFA6EB0056B6EB00564FEA520EB5
:103520004EEAC37E18EB0E0E56EB530EBDD518EBCC
:1035300002085E417F1C55F10005B6E74FF4801587
:103540004FF000074FF000064FF00008ADE7F0BC69
:103550004FF0000001F1C04101F00041BDE80081E1
:1035600011EA0C1F0CEA131500D00CE013EA0C1F33
:1035700000F025804FF00000F0BC81EA030101F06B
:103580000041BDE80081F0BCBDE8004181EA0301D3
:1035900000F0AEB8F0BCBDE8004170B500F05AF8DC
:1035A000097EFC3E00F007B881EA03014FF00000FD
:1035B00001F00041704781EA030100F099B8F0BCC6
:1035C000BDE800414FF0000021497047FFFDFBF9C5
:1035D000F7F5F4F2F0EEEDEBE9E8E6E4E3E1E0DE46
:1035E000DDDBDAD8D7D5D4D3D1D0CFCDCCCBCAC8B8
:1035F000C7C6C5C4C2C1C0BFBEBDBCBBBAB9B8B7DF
:10360000B6B5B4B3B2B1B0AFAEADACABAAA9A8A8D1
:10361000A7A6A5A4A3A3A2A1A09F9F9E9D9C9C9B9F
:103620009A9999989797969595949393929191904A
:103630008F8F8E8E8D8C8C8B8B8A898988888787DB
:103640008685858484838382828181800000FF0750
:103650000000F87F0EF1020E2EF0030E5EF8046BF0
:10366000364205D4012A43EB030515F5001F12D895
:10367000012841EB010C1CF5001F0CD80ED14FEABC
:10368000D17C15F5001F0CEB4C0C0CF1020C08BFA3
:103690004CEBD37C04E04FF0080C01E04FEAD37C04
:1036A0000CEB4C0526FA05F606F00706B6F1040CFD
:1036B00006D20EEB860CBDE870404CF0010C604762
:1036C000DFE80CF0090B02024FF000414FF0000060
:1036D000A1F5002170BD19461046012851EB0104E7
:1036E00018BFD4F5001484BF002001F0004170BD64
:1036F0000808A0F500114FEA3101704710B591EAB2
:10370000030F48BF83F000433FF5ACAD841A71EB63
:10371000030C07D212198CF0004C43EB0C03001B76
:1037200061EB0C01DFF8A4E14FEA1154A4EB135C48
:103730001EEA430F18BF9EEA445F00F0B08023EA00
:103740006E03524221EA0451C3EB6E0338BF5B1E85
:10375000DCF1200E25D322FA0CFE10EB0E0043FA0A
:103760000CFE41EB0E01CCF1200E03FA0EFE10EB25
:103770000E0051F10001CCF1200E29D412FA0EF204
:1037800001EB0451BDE8104058BF7047401C1CBFFE
:10379000B2F1004F704700280CBF491C20F0010017
:1037A000704712EB020E43EB030218BF4FF0010EFD
:1037B0004EEA4202ACF1200CDCF11E0E54D943FA61
:1037C0000CFE10EB0E0051F1FF31CCF11E0ED5D5E1
:1037D0000EF1010E12FA0EFE404141EB010101EB28
:1037E000445C5FEA5C5C10D910EBDE7001EB0451C5
:1037F00038BFBEF1004FBDE8104018BF7047002829
:103800000CBF491C20F00100704730D24FEAD42C85
:1038100011F5001124F400641BD0B1FA81F20B3AC7
:10382000A41AA41ED2F12003914030FA03F31943E5
:10383000904001EBCC71002C01EB0451BDE810402D
:10384000A8BF704701F1C0414FF0000001F00041F6
:103850007047B0FA80F310FA03F100D110BDE41AFA
:10386000173C4805C90AE4E701EB045110BD4910B3
:1038700001EB0451BDE810404FEA300002E04FF088
:10388000000170474A0008BF0042F8D0B2F5001F9F
:1038900028BF704701F000414FF0000070479EEADA
:1038A000445F07D011EA5E0FBDE8104004BF00215D
:1038B00000207047BDE8104070B5FFF7CBFE00BF99
:1038C00040DFF63E83F00041104670470000E0FF05
:1038D00043004FEAD30C4FEA3C0C43401FBF400764
:1038E0000CF1605113F0FE4F70471CF0006F03D1D4
:1038F00000200CF0004170470CF0004343EA507088
:1039000010B540EACC0000F066F900BF000000925C
:103910004FEA0001FFF7ECBE4FF000414FF000000E
:10392000A1F50021704700004FF47F0C1CEAD01273
:103930001EBF1CEAD11392EA0C0F93EA0C0F00F0A1
:10394000858090EA010F48BF42F4807240F4000C79
:1039500041F400002CF07F4120F07F4000B581420F
:10396000A2EB03020FF2081CACEB504EC0F10000BA
:103970009EF800E04FEA4E0E00FB0EFC38BF4900F7
:103980004FEA2C1C02F5FA020CFB0EF34FEACE1E96
:103990004FEA112C4FEAC1210EEB635E42EB22424B
:1039A0000EFB0CFC4FEA1C5300FB03114FEA112CD9
:1039B0004FEA01310EFB0CFC4FEADC4C00FB0C1112
:1039C000C14228BF09184CEB03335DF804EB10EB40
:1039D000410143EBC250B2F57C0F38BF704729D587
:1039E00012F0F00F1CBF00F1C04000F00040704723
:1039F000008182838485868788898B8C8D8E8F91C8
:103A00009293959697999A9C9D9FA0A2A3A5A7A8EB
:103A1000AAACAEB0B2B3B5B7B9BCBEC0C2C5C7C917
:103A2000CCCED1D4D7D9DCDFE2E6E9ECF0F3F7FA7B
:103A3000FE0000004FEA400C0CF1807CBCF17E4F90
:103A400028BF7047B0F1C04000F00BB990EA010FF9
:103A50000CEAD11348BF42F48072624538BF634517
:103A600007D213F47F0F16D080EA010000F0004067
:103A7000704710B500F0AFF8097EFC3E00F005B8C5
:103A800080EA010000F00040704780EA010000F089
:103A9000004000F0E6B812F47F0F04BF0248704700
:103AA00080EA010000F0DDB80000C07FB0FA80F3CA
:103AB00010FA03F2C3F19D030AD0D90501EB1220DD
:103AC000530638BF704700F1010008BF20F0010025
:103AD000704700004FF47F0C1CEAD0121EBF1CEA96
:103AE000D11392EA0C0F93EA0C0F00F0478090EA92
:103AF000010F48BF42F480724FF0004C4CEA0020A6
:103B00004CEA012102EB0302A0FB0113A2F5000223
:103B1000002918BF43F001035B0028BF4FEA3303BD
:103B200042EB22425FEA132C4CEBC2502EBFBCEB9F
:103B3000436FB2F57C0F70474FEA036CBCF1004F46
:103B400008BF20F00100B2F57C0F38BF70470BD5DD
:103B500082F0FF0212F5803FC8BF704700F1C040FD
:103B6000D8BF00F00040704700F5000C5FEA4C0C35
:103B700048BF7047B0F1C04000F073B890EA010F41
:103B80000CEAD11348BF42F48072624538BF6345E6
:103B900004D280EA010000F00040704710B500F048
:103BA0001AF800BF8900013E00F007B800F009B81C
:103BB0005FEA410C5FEA1C6C08D080EA010000F06B
:103BC00050B85FEA400C5FEA1C6CF6D14FF0004041
:103BD000A0F5800070470EF1020E2EF0030E5EF885
:103BE000044B244204D44FEA4102B2F17F4F11D872
:103BF0004FEA4003B3F17F4F0CD80ED14FEAD07C8F
:103C0000B2F17F4F0CEB4C0C0CF1020C08BF4CEBEB
:103C1000D17C04E04FF0080C01E04FEAD17C0CEBC2
:103C20004C0324FA03F404F00704B4F1040C06D2A4
:103C30000EEB840CBDE810404CF0010C6047DFE84F
:103C40000CF0070802024FF00040A0F5800010BD04
:103C50000846420018BFD2F1807288BF00F00040D1
:103C600010BDFF2141EAD050C0057047FCF783BE6C
:103C70000400000800000000000000020001000035
:103C8000100000000000000000000000303132335E
:103C90003435363738394142434445464030580080
:103CA00030313233343536373839616263646566B2
:103CB0004030780002400000000000A0000000003A
:103CC00005400000000000C8000000000C4000009B
:103CD0000000409C00000000194000000020BCBE15
:103CE0000000000034400000BFC91B8E000000042B
:103CF000B5400000504BCFD06607E2CF0100000076
:103D00006C4100003E8251AADFEEA73401000000A2
:103D1000D9420000DCB5A0E23A301F97FFFFFFFF59
:103D2000B4450000FD25A0C8E9A3C14FFFFFFFFF78
:103D3000FF3F00000000008000000000FF3F000087
:103D40000000008000000000313030313000000001
:103D50003133392E3139392E3137322E3235330065
:103D6000AC3E000800000020600000006C0100086C
:103D70000C3F000860000020280F000088010008A8
:103D80001C00000043000000F8FFFFFF0C000000D3
:103D90000E0000000F0000002E00000010010000C7
:103DA00043000000F8FFFFFF00404040404040401B
:103DB00040404141414141404040404040404040FE
:103DC00040404040404040404005020202020202A2
:103DD00002020202020202020220202020202020F1
:103DE0002020200202020202020290909090909005
:103DF00010101010101010101010101010101010C3
:103E00001010101002020202020288888888888836
:103E10000808080808080808080808080808080822
:103E2000080808080202020240000000000000002A
:103E30000000000000000000000000000000000082
:103E40000000000000000000000000000000000072
:103E50000000000000000000000000000000000062
:103E60000000000000000000000000000000000052
:103E70000000000000000000000000000000000042
:103E80000000000000000000000000000000000032
:103E90000000000000000000000000000000000022
:103EA000000000000000000000000000503D00087D
:103EB000483D000800000000000000000000000075
:103EC0000000000002000000000000000000804030
:103ED000000000000000000000A24A0400000000F2
:103EE00000000000010203040607080900000000AA
:103EF000010203040102030406070809020406087C
:0C3F0000000000000000000000000000B5
:0400000508000131BD
:00000001FF
